:100000000C9461000C9473000C9473000C947300B6
:100010000C9473000C9473000C9473000C94730094
:100020000C9473000C9473000C9473000C94730084
:100030000C9473000C9473000C9473000C94730074
:100040000C9460010C9473000C9473000C94730076
:100050000C9473000C9473000C9473000C94730054
:100060000C9473000C94730000000000240027001F
:100070002A0000000000250028002B0000000000DE
:1000800023002600290004040404040404040202DA
:100090000202020203030303030301020408102007
:1000A0004080010204081020010204081020000012
:1000B0000008000201000003040700000000000027
:1000C000000011241FBECFEFD8E0DEBFCDBF21E07E
:1000D000A0E0B1E001C01D92AE30B207E1F70E948E
:1000E000AA010C94B3020C940000833081F028F430
:1000F000813099F08230A1F008958730A9F08830DE
:10010000B9F08430D1F4809180008F7D03C080915C
:1001100080008F7780938000089584B58F7702C028
:1001200084B58F7D84BD08958091B0008F7703C022
:100130008091B0008F7D8093B0000895CF93DF93BE
:10014000282F30E0F901E255FF4F8491F901E6567E
:10015000FF4FD491F901EA57FF4FC491CC2391F09E
:1001600081110E947500EC2FF0E0EE0FFF1FE458A4
:10017000FF4FA591B491EC91ED2381E090E021F443
:1001800080E002C080E090E0DF91CF9108951F935E
:10019000CF93DF93282F30E0F901E255FF4F849190
:1001A000F901E656FF4FD491F901EA57FF4FC49188
:1001B000CC23C1F0162F81110E947500EC2FF0E0C6
:1001C000EE0FFF1FEE58FF4FA591B4919FB7F89423
:1001D000111104C08C91D095D82302C0EC91DE2B74
:1001E000DC939FBFDF91CF911F910895CF93DF9351
:1001F00090E0FC01E656FF4F2491FC01EA57FF4FC7
:100200008491882361F190E0880F991FFC01E859DF
:10021000FF4FC591D491FC01EE58FF4FA591B491C9
:10022000611109C09FB7F894888120958223888343
:10023000EC912E230BC0623061F49FB7F894888153
:10024000322F309583238883EC912E2B2C939FBFE4
:1002500006C08FB7F894E8812E2B28838FBFDF91DB
:10026000CF910895FC018091C00087FFFCCF2091C1
:10027000C0009091C100287141F48091C600808334
:1002800091FB882780F990E008958FEF9FEF089504
:100290009091C00095FFFCCF9091C1009E7F9093FC
:1002A000C1008093C60008959091C00095FFFCCFD7
:1002B0009091C10091609093C1008093C600089511
:1002C0001F920F920FB60F9211242F933F938F938B
:1002D0009F93AF93BF9380910A0190910B01A091DE
:1002E0000C01B0910D013091090123E0230F2D374E
:1002F00020F40196A11DB11D05C026E8230F02962A
:10030000A11DB11D2093090180930A0190930B0157
:10031000A0930C01B0930D0180910501909106010D
:10032000A0910701B09108010196A11DB11D809314
:10033000050190930601A0930701B0930801BF91B6
:10034000AF919F918F913F912F910F900FBE0F9082
:100350001F901895789484B5826084BD84B58160BF
:1003600084BD85B5826085BD85B5816085BD809180
:100370006E00816080936E001092810080918100F8
:1003800082608093810080918100816080938100F0
:10039000809180008160809380008091B1008460B2
:1003A0008093B1008091B00081608093B000809113
:1003B0007A00846080937A0080917A0082608093D2
:1003C0007A0080917A00816080937A0080917A002F
:1003D000806880937A001092C1001092C50087E671
:1003E0008093C40088E18093C1008EE08093C200B6
:1003F00061E08DE00E94F60061E082E00E94F6007C
:1004000062E088E00E94F60062E089E00E94F60067
:1004100062E08AE00E94F60062E08BE00E94F60053
:1004200060E082E00E94C70088E00E949E00D82F12
:1004300089E00E949E008C018AE00E949E00000FCD
:10044000111F880F991F880F991F802BC82FCD2B44
:100450008BE00E949E0043E0880F991F4A95E1F7C8
:100460008C2B809304018F3049F462E087E00E9476
:10047000F60062E086E00E94F60007C081E080930B
:10048000C00060E08DE00E94C700C0E0D0E011E055
:10049000009104010F30B9F561E082E00E94C700CD
:1004A00087E00E949E00892BC9F48091010181118F
:1004B000F7CF8DE00E9454018FEF0E944801109306
:1004C0000101EECF80910001811108C08EE00E94F1
:1004D00054018FEF0E9448011093000186E00E94B2
:1004E0009E00892B79F380910101811104C08091D4
:1004F0000001882319F08FE70E9448011092010142
:10050000109200012AC083E091E00E9432018091A4
:100510000301081322C08091C0008E7F8093C00029
:1005200082E091E00E94320160910201661F66271D
:10053000661F8DE00E94C70082E091E00E943201B8
:1005400060910201661F6627661F8DE00E94C7004A
:100550008091C00081608093C000209709F498CFFB
:0A0560000E94000095CFF894FFCF31
:00000001FF
